{
  "abi": [
    {
      "type": "receive",
      "stateMutability": "payable"
    },
    {
      "type": "function",
      "name": "DEFAULT_ADMIN_ROLE",
      "inputs": [],
      "outputs": [
        {
          "name": "",
          "type": "bytes32",
          "internalType": "bytes32"
        }
      ],
      "stateMutability": "view"
    },
    {
      "type": "function",
      "name": "claimAllTokens",
      "inputs": [],
      "outputs": [],
      "stateMutability": "nonpayable"
    },
    {
      "type": "function",
      "name": "claimToken",
      "inputs": [
        {
          "name": "_tokenAddress",
          "type": "address",
          "internalType": "contract IERC20"
        }
      ],
      "outputs": [],
      "stateMutability": "nonpayable"
    },
    {
      "type": "function",
      "name": "depositERC20",
      "inputs": [
        {
          "name": "_tokenAddress",
          "type": "address",
          "internalType": "contract IERC20"
        },
        {
          "name": "_amount",
          "type": "uint256",
          "internalType": "uint256"
        }
      ],
      "outputs": [],
      "stateMutability": "nonpayable"
    },
    {
      "type": "function",
      "name": "depositETH",
      "inputs": [],
      "outputs": [],
      "stateMutability": "payable"
    },
    {
      "type": "function",
      "name": "ethAddress",
      "inputs": [],
      "outputs": [
        {
          "name": "",
          "type": "address",
          "internalType": "address"
        }
      ],
      "stateMutability": "view"
    },
    {
      "type": "function",
      "name": "getRoleAdmin",
      "inputs": [
        {
          "name": "role",
          "type": "bytes32",
          "internalType": "bytes32"
        }
      ],
      "outputs": [
        {
          "name": "",
          "type": "bytes32",
          "internalType": "bytes32"
        }
      ],
      "stateMutability": "view"
    },
    {
      "type": "function",
      "name": "getTokenWhiteList",
      "inputs": [],
      "outputs": [
        {
          "name": "",
          "type": "address[]",
          "internalType": "address[]"
        }
      ],
      "stateMutability": "view"
    },
    {
      "type": "function",
      "name": "grantReward",
      "inputs": [
        {
          "name": "_tokenAddress",
          "type": "address",
          "internalType": "contract IERC20"
        },
        {
          "name": "_receiver",
          "type": "address",
          "internalType": "address"
        },
        {
          "name": "_amount",
          "type": "uint256",
          "internalType": "uint256"
        }
      ],
      "outputs": [],
      "stateMutability": "nonpayable"
    },
    {
      "type": "function",
      "name": "grantRole",
      "inputs": [
        {
          "name": "role",
          "type": "bytes32",
          "internalType": "bytes32"
        },
        {
          "name": "account",
          "type": "address",
          "internalType": "address"
        }
      ],
      "outputs": [],
      "stateMutability": "nonpayable"
    },
    {
      "type": "function",
      "name": "hasRole",
      "inputs": [
        {
          "name": "role",
          "type": "bytes32",
          "internalType": "bytes32"
        },
        {
          "name": "account",
          "type": "address",
          "internalType": "address"
        }
      ],
      "outputs": [
        {
          "name": "",
          "type": "bool",
          "internalType": "bool"
        }
      ],
      "stateMutability": "view"
    },
    {
      "type": "function",
      "name": "initialize",
      "inputs": [
        {
          "name": "_initialOwner",
          "type": "address",
          "internalType": "address"
        },
        {
          "name": "_treasureManager",
          "type": "address",
          "internalType": "address"
        },
        {
          "name": "_withdrawManager",
          "type": "address",
          "internalType": "address"
        }
      ],
      "outputs": [],
      "stateMutability": "nonpayable"
    },
    {
      "type": "function",
      "name": "newMethod",
      "inputs": [],
      "outputs": [
        {
          "name": "",
          "type": "uint256",
          "internalType": "uint256"
        }
      ],
      "stateMutability": "pure"
    },
    {
      "type": "function",
      "name": "owner",
      "inputs": [],
      "outputs": [
        {
          "name": "",
          "type": "address",
          "internalType": "address"
        }
      ],
      "stateMutability": "view"
    },
    {
      "type": "function",
      "name": "queryReward",
      "inputs": [
        {
          "name": "_tokenAddress",
          "type": "address",
          "internalType": "address"
        }
      ],
      "outputs": [
        {
          "name": "",
          "type": "uint256",
          "internalType": "uint256"
        }
      ],
      "stateMutability": "view"
    },
    {
      "type": "function",
      "name": "renounceOwnership",
      "inputs": [],
      "outputs": [],
      "stateMutability": "nonpayable"
    },
    {
      "type": "function",
      "name": "renounceRole",
      "inputs": [
        {
          "name": "role",
          "type": "bytes32",
          "internalType": "bytes32"
        },
        {
          "name": "callerConfirmation",
          "type": "address",
          "internalType": "address"
        }
      ],
      "outputs": [],
      "stateMutability": "nonpayable"
    },
    {
      "type": "function",
      "name": "revokeRole",
      "inputs": [
        {
          "name": "role",
          "type": "bytes32",
          "internalType": "bytes32"
        },
        {
          "name": "account",
          "type": "address",
          "internalType": "address"
        }
      ],
      "outputs": [],
      "stateMutability": "nonpayable"
    },
    {
      "type": "function",
      "name": "setTokenWhiteList",
      "inputs": [
        {
          "name": "_tokenAddress",
          "type": "address",
          "internalType": "address"
        }
      ],
      "outputs": [],
      "stateMutability": "nonpayable"
    },
    {
      "type": "function",
      "name": "setWithdrawManager",
      "inputs": [
        {
          "name": "_withdrawManager",
          "type": "address",
          "internalType": "address"
        }
      ],
      "outputs": [],
      "stateMutability": "nonpayable"
    },
    {
      "type": "function",
      "name": "supportsInterface",
      "inputs": [
        {
          "name": "interfaceId",
          "type": "bytes4",
          "internalType": "bytes4"
        }
      ],
      "outputs": [
        {
          "name": "",
          "type": "bool",
          "internalType": "bool"
        }
      ],
      "stateMutability": "view"
    },
    {
      "type": "function",
      "name": "tokenBalance",
      "inputs": [
        {
          "name": "",
          "type": "address",
          "internalType": "address"
        }
      ],
      "outputs": [
        {
          "name": "",
          "type": "uint256",
          "internalType": "uint256"
        }
      ],
      "stateMutability": "view"
    },
    {
      "type": "function",
      "name": "tokenWhiteList",
      "inputs": [
        {
          "name": "",
          "type": "uint256",
          "internalType": "uint256"
        }
      ],
      "outputs": [
        {
          "name": "",
          "type": "address",
          "internalType": "address"
        }
      ],
      "stateMutability": "view"
    },
    {
      "type": "function",
      "name": "transferOwnership",
      "inputs": [
        {
          "name": "newOwner",
          "type": "address",
          "internalType": "address"
        }
      ],
      "outputs": [],
      "stateMutability": "nonpayable"
    },
    {
      "type": "function",
      "name": "treasureManager",
      "inputs": [],
      "outputs": [
        {
          "name": "",
          "type": "address",
          "internalType": "address"
        }
      ],
      "stateMutability": "view"
    },
    {
      "type": "function",
      "name": "userReward",
      "inputs": [
        {
          "name": "",
          "type": "address",
          "internalType": "address"
        },
        {
          "name": "",
          "type": "address",
          "internalType": "address"
        }
      ],
      "outputs": [
        {
          "name": "",
          "type": "uint256",
          "internalType": "uint256"
        }
      ],
      "stateMutability": "view"
    },
    {
      "type": "function",
      "name": "withdrawERC20",
      "inputs": [
        {
          "name": "_tokenAddress",
          "type": "address",
          "internalType": "contract IERC20"
        },
        {
          "name": "_withdrawERC20Address",
          "type": "address",
          "internalType": "address"
        },
        {
          "name": "_amount",
          "type": "uint256",
          "internalType": "uint256"
        }
      ],
      "outputs": [],
      "stateMutability": "nonpayable"
    },
    {
      "type": "function",
      "name": "withdrawETH",
      "inputs": [
        {
          "name": "_withdrawETHAddress",
          "type": "address",
          "internalType": "address payable"
        },
        {
          "name": "_amount",
          "type": "uint256",
          "internalType": "uint256"
        }
      ],
      "outputs": [],
      "stateMutability": "nonpayable"
    },
    {
      "type": "function",
      "name": "withdrawManager",
      "inputs": [],
      "outputs": [
        {
          "name": "",
          "type": "address",
          "internalType": "address"
        }
      ],
      "stateMutability": "view"
    },
    {
      "type": "event",
      "name": "DepositToken",
      "inputs": [
        {
          "name": "_tokenAddress",
          "type": "address",
          "indexed": true,
          "internalType": "address"
        },
        {
          "name": "_sender",
          "type": "address",
          "indexed": true,
          "internalType": "address"
        },
        {
          "name": "_amount",
          "type": "uint256",
          "indexed": false,
          "internalType": "uint256"
        }
      ],
      "anonymous": false
    },
    {
      "type": "event",
      "name": "GrantRewardTokenAmount",
      "inputs": [
        {
          "name": "_tokenAddress",
          "type": "address",
          "indexed": true,
          "internalType": "address"
        },
        {
          "name": "_granter",
          "type": "address",
          "indexed": false,
          "internalType": "address"
        },
        {
          "name": "_amount",
          "type": "uint256",
          "indexed": false,
          "internalType": "uint256"
        }
      ],
      "anonymous": false
    },
    {
      "type": "event",
      "name": "Initialized",
      "inputs": [
        {
          "name": "version",
          "type": "uint64",
          "indexed": false,
          "internalType": "uint64"
        }
      ],
      "anonymous": false
    },
    {
      "type": "event",
      "name": "OwnershipTransferred",
      "inputs": [
        {
          "name": "previousOwner",
          "type": "address",
          "indexed": true,
          "internalType": "address"
        },
        {
          "name": "newOwner",
          "type": "address",
          "indexed": true,
          "internalType": "address"
        }
      ],
      "anonymous": false
    },
    {
      "type": "event",
      "name": "RoleAdminChanged",
      "inputs": [
        {
          "name": "role",
          "type": "bytes32",
          "indexed": true,
          "internalType": "bytes32"
        },
        {
          "name": "previousAdminRole",
          "type": "bytes32",
          "indexed": true,
          "internalType": "bytes32"
        },
        {
          "name": "newAdminRole",
          "type": "bytes32",
          "indexed": true,
          "internalType": "bytes32"
        }
      ],
      "anonymous": false
    },
    {
      "type": "event",
      "name": "RoleGranted",
      "inputs": [
        {
          "name": "role",
          "type": "bytes32",
          "indexed": true,
          "internalType": "bytes32"
        },
        {
          "name": "account",
          "type": "address",
          "indexed": true,
          "internalType": "address"
        },
        {
          "name": "sender",
          "type": "address",
          "indexed": true,
          "internalType": "address"
        }
      ],
      "anonymous": false
    },
    {
      "type": "event",
      "name": "RoleRevoked",
      "inputs": [
        {
          "name": "role",
          "type": "bytes32",
          "indexed": true,
          "internalType": "bytes32"
        },
        {
          "name": "account",
          "type": "address",
          "indexed": true,
          "internalType": "address"
        },
        {
          "name": "sender",
          "type": "address",
          "indexed": true,
          "internalType": "address"
        }
      ],
      "anonymous": false
    },
    {
      "type": "event",
      "name": "WithdrawManagerUpdate",
      "inputs": [
        {
          "name": "_withdrawManager",
          "type": "address",
          "indexed": true,
          "internalType": "address"
        }
      ],
      "anonymous": false
    },
    {
      "type": "event",
      "name": "WithdrawToken",
      "inputs": [
        {
          "name": "_tokenAddress",
          "type": "address",
          "indexed": true,
          "internalType": "address"
        },
        {
          "name": "_sender",
          "type": "address",
          "indexed": false,
          "internalType": "address"
        },
        {
          "name": "_withdrawAddress",
          "type": "address",
          "indexed": false,
          "internalType": "address"
        },
        {
          "name": "_amount",
          "type": "uint256",
          "indexed": false,
          "internalType": "uint256"
        }
      ],
      "anonymous": false
    },
    {
      "type": "error",
      "name": "AccessControlBadConfirmation",
      "inputs": []
    },
    {
      "type": "error",
      "name": "AccessControlUnauthorizedAccount",
      "inputs": [
        {
          "name": "account",
          "type": "address",
          "internalType": "address"
        },
        {
          "name": "neededRole",
          "type": "bytes32",
          "internalType": "bytes32"
        }
      ]
    },
    {
      "type": "error",
      "name": "AddressEmptyCode",
      "inputs": [
        {
          "name": "target",
          "type": "address",
          "internalType": "address"
        }
      ]
    },
    {
      "type": "error",
      "name": "AddressInsufficientBalance",
      "inputs": [
        {
          "name": "account",
          "type": "address",
          "internalType": "address"
        }
      ]
    },
    {
      "type": "error",
      "name": "FailedInnerCall",
      "inputs": []
    },
    {
      "type": "error",
      "name": "InvalidInitialization",
      "inputs": []
    },
    {
      "type": "error",
      "name": "IsZeroAddress",
      "inputs": []
    },
    {
      "type": "error",
      "name": "NotInitializing",
      "inputs": []
    },
    {
      "type": "error",
      "name": "OwnableInvalidOwner",
      "inputs": [
        {
          "name": "owner",
          "type": "address",
          "internalType": "address"
        }
      ]
    },
    {
      "type": "error",
      "name": "OwnableUnauthorizedAccount",
      "inputs": [
        {
          "name": "account",
          "type": "address",
          "internalType": "address"
        }
      ]
    },
    {
      "type": "error",
      "name": "ReentrancyGuardReentrantCall",
      "inputs": []
    },
    {
      "type": "error",
      "name": "SafeERC20FailedOperation",
      "inputs": [
        {
          "name": "token",
          "type": "address",
          "internalType": "address"
        }
      ]
    }
  ],
  "bytecode": {
    "object": "0x608060405234801561001057600080fd5b50611a74806100206000396000f3fe6080604052600436106101c65760003560e01c80634782f779116100f7578063a2672ad711610095578063ec3e9da511610064578063ec3e9da514610605578063eedc966a14610625578063f2fde38b14610652578063f6326fb31461067257600080fd5b8063a2672ad714610562578063c0c53b8b14610582578063c37220ea146105a2578063d547741f146105e557600080fd5b80638da5cb5b116100d15780638da5cb5b146104d057806391d148541461050d57806397feb9261461052d578063a217fddf1461054d57600080fd5b80634782f779146104635780635cbadbe414610483578063715018a6146104bb57600080fd5b8063248a9ca31161016457806336568abe1161013e57806336568abe146103e65780633b076dbc1461040657806341398b151461041b57806344004cc11461044357600080fd5b8063248a9ca3146103785780632f2ff15d146103a657806332f289cf146103c657600080fd5b80630ec08b00116101a05780630ec08b001461030157806317e3e2e8146103215780631e4bd42c1461034157806323ecdbee1461035657600080fd5b806301ffc9a71461027257806302fef78b146102a757806303186d22146102c957600080fd5b3661026d5773eeeeeeeeeeeeeeeeeeeeeeeeeeeeeeeeeeeeeeee600090815260036020527f40c35f83c179e47de306c9fe55fdc60064f11dd52adb51ab61b5643ee626f98d805434929061021b908490611730565b9091555050604051348152339073eeeeeeeeeeeeeeeeeeeeeeeeeeeeeeeeeeeeeeee907f4b3f81827ede20c81afbf1bb77b954afcdcae24d391d99042310cb1d9210dd579060200160405180910390a3005b600080fd5b34801561027e57600080fd5b5061029261028d366004611743565b61067a565b60405190151581526020015b60405180910390f35b3480156102b357600080fd5b506102c76102c2366004611782565b6106b1565b005b3480156102d557600080fd5b506000546102e9906001600160a01b031681565b6040516001600160a01b03909116815260200161029e565b34801561030d57600080fd5b506102e961031c3660046117c3565b61079c565b34801561032d57600080fd5b506102c761033c3660046117dc565b6107c6565b34801561034d57600080fd5b506102c7610818565b34801561036257600080fd5b5061036b610974565b60405161029e91906117f9565b34801561038457600080fd5b506103986103933660046117c3565b6109d6565b60405190815260200161029e565b3480156103b257600080fd5b506102c76103c1366004611846565b6109f8565b3480156103d257600080fd5b506102c76103e13660046117dc565b610a1a565b3480156103f257600080fd5b506102c7610401366004611846565b610bb7565b34801561041257600080fd5b50613039610398565b34801561042757600080fd5b506102e973eeeeeeeeeeeeeeeeeeeeeeeeeeeeeeeeeeeeeeee81565b34801561044f57600080fd5b506102c761045e366004611782565b610bef565b34801561046f57600080fd5b506102c761047e366004611876565b610d1e565b34801561048f57600080fd5b5061039861049e3660046118a2565b600460209081526000928352604080842090915290825290205481565b3480156104c757600080fd5b506102c7610ec8565b3480156104dc57600080fd5b507f9016d09d72d40fdae2fd8ceac6b6234c7706214fd39c1cd1e609a0528c199300546001600160a01b03166102e9565b34801561051957600080fd5b50610292610528366004611846565b610edc565b34801561053957600080fd5b506102c7610548366004611876565b610f14565b34801561055957600080fd5b50610398600081565b34801561056e57600080fd5b506102c761057d3660046117dc565b610f9a565b34801561058e57600080fd5b506102c761059d3660046118d0565b611079565b3480156105ae57600080fd5b506103986105bd3660046117dc565b3360009081526004602090815260408083206001600160a01b03949094168352929052205490565b3480156105f157600080fd5b506102c7610600366004611846565b6111bb565b34801561061157600080fd5b506001546102e9906001600160a01b031681565b34801561063157600080fd5b506103986106403660046117dc565b60036020526000908152604090205481565b34801561065e57600080fd5b506102c761066d3660046117dc565b6111d7565b6102c7611212565b60006001600160e01b03198216637965db0b60e01b14806106ab57506301ffc9a760e01b6001600160e01b03198316145b92915050565b6001600160a01b038316158015906106d157506001600160a01b03821615155b6107145760405162461bcd60e51b815260206004820152600f60248201526e696e76616c6964206164647265737360881b60448201526064015b60405180910390fd5b6001600160a01b0380831660009081526004602090815260408083209387168352929052908120805483929061074b908490611730565b9091555050604080516001600160a01b038481168252602082018490528516917f10621458f3ad2a9cfcb87c216122570629e44079d6af4d717035eb55d2c6042491015b60405180910390a2505050565b600281815481106107ac57600080fd5b6000918252602090912001546001600160a01b0316905081565b6107ce6112b4565b600180546001600160a01b0319166001600160a01b0383169081179091556040517f799e16a314d482c87bc47fd219011aaf33f4f9c7e302be5d7a0af286a52998b990600090a250565b60005b6002548110156109715760006002828154811061083a5761083a61191b565b60009182526020808320909101543383526004825260408084206001600160a01b0390921680855291909252912054909150801561095c5773eeeeeeeeeeeeeeeeeeeeeeeeeeeeeeeeeeeeeeed196001600160a01b0383160161090557604051600090339083908381818185875af1925050503d80600081146108d9576040519150601f19603f3d011682016040523d82523d6000602084013e6108de565b606091505b50509050806108ff5760405162461bcd60e51b815260040161070b90611931565b50610919565b6109196001600160a01b038316338361130f565b3360009081526004602090815260408083206001600160a01b0386168452825280832083905560039091528120805483929061095690849061195e565b90915550505b5050808061096990611971565b91505061081b565b50565b606060028054806020026020016040519081016040528092919081815260200182805480156109cc57602002820191906000526020600020905b81546001600160a01b031681526001909101906020018083116109ae575b5050505050905090565b6000908152600080516020611a1f833981519152602052604090206001015490565b610a01826109d6565b610a0a8161136e565b610a148383611378565b50505050565b6001600160a01b038116610a685760405162461bcd60e51b8152602060048201526015602482015274696e76616c6964205f746f6b656e4164647265737360581b604482015260640161070b565b3360009081526004602090815260408083206001600160a01b038516845290915290205480610acb5760405162461bcd60e51b815260206004820152600f60248201526e1a5b9d985b1a590817d85b5bdd5b9d608a1b604482015260640161070b565b6001600160a01b03821673eeeeeeeeeeeeeeeeeeeeeeeeeeeeeeeeeeeeeeee03610b5d57604051600090339083908381818185875af1925050503d8060008114610b31576040519150601f19603f3d011682016040523d82523d6000602084013e610b36565b606091505b5050905080610b575760405162461bcd60e51b815260040161070b90611931565b50610b71565b610b716001600160a01b038316308361130f565b3360009081526004602090815260408083206001600160a01b03861684528252808320839055600390915281208054839290610bae90849061195e565b90915550505050565b6001600160a01b0381163314610be05760405163334bd91960e11b815260040160405180910390fd5b610bea828261141d565b505050565b6001546001600160a01b03163314610c195760405162461bcd60e51b815260040161070b9061198a565b6001600160a01b03831660009081526003602052604090205480610c895760405162461bcd60e51b815260206004820152602160248201527f696e73756666696369656e74202062616c616e636520696e20636f6e747261636044820152601d60fa1b606482015260840161070b565b610c9d6001600160a01b038516848461130f565b6001600160a01b03841660009081526003602052604081208054849290610cc590849061195e565b9091555050604080513381526001600160a01b038581166020830152918101849052908516907f9ca7c1e047552a8048d924a5a8d3c150eb861086a72a9100e5f19d1176c1b7469060600160405180910390a250505050565b6001546001600160a01b03163314610d485760405162461bcd60e51b815260040161070b9061198a565b60004711610da45760405162461bcd60e51b8152602060048201526024808201527f696e73756666696369656e74204554482062616c616e636520696e20636f6e746044820152631c9858dd60e21b606482015260840161070b565b6000826001600160a01b03168260405160006040518083038185875af1925050503d8060008114610df1576040519150601f19603f3d011682016040523d82523d6000602084013e610df6565b606091505b5050905080610e175760405162461bcd60e51b815260040161070b90611931565b73eeeeeeeeeeeeeeeeeeeeeeeeeeeeeeeeeeeeeeee600090815260036020527f40c35f83c179e47de306c9fe55fdc60064f11dd52adb51ab61b5643ee626f98d8054849290610e6790849061195e565b9091555050604080513381526001600160a01b038516602082015290810183905273eeeeeeeeeeeeeeeeeeeeeeeeeeeeeeeeeeeeeeee907f9ca7c1e047552a8048d924a5a8d3c150eb861086a72a9100e5f19d1176c1b7469060600161078f565b610ed06112b4565b610eda6000611499565b565b6000918252600080516020611a1f833981519152602090815260408084206001600160a01b0393909316845291905290205460ff1690565b610f296001600160a01b03831633308461150a565b6001600160a01b03821660009081526003602052604081208054839290610f51908490611730565b909155505060405181815233906001600160a01b038416907f4b3f81827ede20c81afbf1bb77b954afcdcae24d391d99042310cb1d9210dd579060200160405180910390a35050565b6000546001600160a01b031633146110005760405162461bcd60e51b815260206004820152602360248201527f54726561737572654d616e616765723a6f6e6c7954726561737572654d616e6160448201526233b2b960e91b606482015260840161070b565b6001600160a01b03811661102757604051631326d6d560e01b815260040160405180910390fd5b600280546001810182556000919091527f405787fa12a823e0f2b7631cc41b3ba8828b3321ca811111fa75cd3aa3bb5ace0180546001600160a01b0319166001600160a01b0392909216919091179055565b7ff0c57e16840df040f15088dc2f81fe391c3923bec73e23a9662efc9c229c6a008054600160401b810460ff16159067ffffffffffffffff166000811580156110bf5750825b905060008267ffffffffffffffff1660011480156110dc5750303b155b9050811580156110ea575080155b156111085760405163f92ee8a960e01b815260040160405180910390fd5b845467ffffffffffffffff19166001178555831561113257845460ff60401b1916600160401b1785555b61113b88611499565b600080546001600160a01b03808a166001600160a01b031992831617909255600180549289169290911691909117905583156111b157845460ff60401b19168555604051600181527fc7f505b2f371ae2175ee4913f4499e1f2633a7b5936321eed1cdaeb6115181d29060200160405180910390a15b5050505050505050565b6111c4826109d6565b6111cd8161136e565b610a14838361141d565b6111df6112b4565b6001600160a01b03811661120957604051631e4fbdf760e01b81526000600482015260240161070b565b61097181611499565b73eeeeeeeeeeeeeeeeeeeeeeeeeeeeeeeeeeeeeeee600090815260036020527f40c35f83c179e47de306c9fe55fdc60064f11dd52adb51ab61b5643ee626f98d8054349290611262908490611730565b9091555050604051348152339073eeeeeeeeeeeeeeeeeeeeeeeeeeeeeeeeeeeeeeee907f4b3f81827ede20c81afbf1bb77b954afcdcae24d391d99042310cb1d9210dd579060200160405180910390a3565b336112e67f9016d09d72d40fdae2fd8ceac6b6234c7706214fd39c1cd1e609a0528c199300546001600160a01b031690565b6001600160a01b031614610eda5760405163118cdaa760e01b815233600482015260240161070b565b6040516001600160a01b03838116602483015260448201839052610bea91859182169063a9059cbb906064015b604051602081830303815290604052915060e01b6020820180516001600160e01b038381831617835250505050611543565b61097181336115a6565b6000600080516020611a1f8339815191526113938484610edc565b611413576000848152602082815260408083206001600160a01b03871684529091529020805460ff191660011790556113c93390565b6001600160a01b0316836001600160a01b0316857f2f8788117e7eff1d82e926ec794901d17c78024a50270940304540a733656f0d60405160405180910390a460019150506106ab565b60009150506106ab565b6000600080516020611a1f8339815191526114388484610edc565b15611413576000848152602082815260408083206001600160a01b0387168085529252808320805460ff1916905551339287917ff6391f5c32d9c69d2a47ea670b442974b53935d1edc7fd64eb21e047a839171b9190a460019150506106ab565b7f9016d09d72d40fdae2fd8ceac6b6234c7706214fd39c1cd1e609a0528c19930080546001600160a01b031981166001600160a01b03848116918217845560405192169182907f8be0079c531659141344cd1fd0a4f28419497f9722a3daafe3b4186f6b6457e090600090a3505050565b6040516001600160a01b038481166024830152838116604483015260648201839052610a149186918216906323b872dd9060840161133c565b60006115586001600160a01b038416836115e3565b9050805160001415801561157d57508080602001905181019061157b91906119cd565b155b15610bea57604051635274afe760e01b81526001600160a01b038416600482015260240161070b565b6115b08282610edc565b6115df5760405163e2517d3f60e01b81526001600160a01b03821660048201526024810183905260440161070b565b5050565b60606115f1838360006115f8565b9392505050565b60608147101561161d5760405163cd78605960e01b815230600482015260240161070b565b600080856001600160a01b0316848660405161163991906119ef565b60006040518083038185875af1925050503d8060008114611676576040519150601f19603f3d011682016040523d82523d6000602084013e61167b565b606091505b509150915061168b868383611695565b9695505050505050565b6060826116aa576116a5826116f1565b6115f1565b81511580156116c157506001600160a01b0384163b155b156116ea57604051639996b31560e01b81526001600160a01b038516600482015260240161070b565b50806115f1565b8051156117015780518082602001fd5b604051630a12f52160e11b815260040160405180910390fd5b634e487b7160e01b600052601160045260246000fd5b808201808211156106ab576106ab61171a565b60006020828403121561175557600080fd5b81356001600160e01b0319811681146115f157600080fd5b6001600160a01b038116811461097157600080fd5b60008060006060848603121561179757600080fd5b83356117a28161176d565b925060208401356117b28161176d565b929592945050506040919091013590565b6000602082840312156117d557600080fd5b5035919050565b6000602082840312156117ee57600080fd5b81356115f18161176d565b6020808252825182820181905260009190848201906040850190845b8181101561183a5783516001600160a01b031683529284019291840191600101611815565b50909695505050505050565b6000806040838503121561185957600080fd5b82359150602083013561186b8161176d565b809150509250929050565b6000806040838503121561188957600080fd5b82356118948161176d565b946020939093013593505050565b600080604083850312156118b557600080fd5b82356118c08161176d565b9150602083013561186b8161176d565b6000806000606084860312156118e557600080fd5b83356118f08161176d565b925060208401356119008161176d565b915060408401356119108161176d565b809150509250925092565b634e487b7160e01b600052603260045260246000fd5b602080825260139082015272115512081d1c985b9cd9995c8819985a5b1959606a1b604082015260600190565b818103818111156106ab576106ab61171a565b6000600182016119835761198361171a565b5060010190565b60208082526023908201527f54726561737572654d616e616765723a6f6e6c7957697468647261774d616e6160408201526233b2b960e91b606082015260800190565b6000602082840312156119df57600080fd5b815180151581146115f157600080fd5b6000825160005b81811015611a1057602081860181015185830152016119f6565b50600092019182525091905056fe02dd7bc7dec4dceedda775e58dd541e08a116c6c53815c0bd028192f7b626800a2646970667358221220ff6e14480fc8cae0719ca13845e7f3916d32bc3819aeacf0dc7086537d08bc4664736f6c63430008140033",
    "linkReferences": {}
  },
  "methodIdentifiers": {
    "DEFAULT_ADMIN_ROLE()": "a217fddf",
    "claimAllTokens()": "1e4bd42c",
    "claimToken(address)": "32f289cf",
    "depositERC20(address,uint256)": "97feb926",
    "depositETH()": "f6326fb3",
    "ethAddress()": "41398b15",
    "getRoleAdmin(bytes32)": "248a9ca3",
    "getTokenWhiteList()": "23ecdbee",
    "grantReward(address,address,uint256)": "02fef78b",
    "grantRole(bytes32,address)": "2f2ff15d",
    "hasRole(bytes32,address)": "91d14854",
    "initialize(address,address,address)": "c0c53b8b",
    "newMethod()": "3b076dbc",
    "owner()": "8da5cb5b",
    "queryReward(address)": "c37220ea",
    "renounceOwnership()": "715018a6",
    "renounceRole(bytes32,address)": "36568abe",
    "revokeRole(bytes32,address)": "d547741f",
    "setTokenWhiteList(address)": "a2672ad7",
    "setWithdrawManager(address)": "17e3e2e8",
    "supportsInterface(bytes4)": "01ffc9a7",
    "tokenBalance(address)": "eedc966a",
    "tokenWhiteList(uint256)": "0ec08b00",
    "transferOwnership(address)": "f2fde38b",
    "treasureManager()": "03186d22",
    "userReward(address,address)": "5cbadbe4",
    "withdrawERC20(address,address,uint256)": "44004cc1",
    "withdrawETH(address,uint256)": "4782f779",
    "withdrawManager()": "ec3e9da5"
  },
  "storageLayout": {
    "storage": [
      {
        "astId": 41862,
        "contract": "src/TreasureManager.sol:TreasureManager",
        "label": "treasureManager",
        "offset": 0,
        "slot": "0",
        "type": "t_address"
      },
      {
        "astId": 41864,
        "contract": "src/TreasureManager.sol:TreasureManager",
        "label": "withdrawManager",
        "offset": 0,
        "slot": "1",
        "type": "t_address"
      },
      {
        "astId": 41867,
        "contract": "src/TreasureManager.sol:TreasureManager",
        "label": "tokenWhiteList",
        "offset": 0,
        "slot": "2",
        "type": "t_array(t_address)dyn_storage"
      },
      {
        "astId": 41871,
        "contract": "src/TreasureManager.sol:TreasureManager",
        "label": "tokenBalance",
        "offset": 0,
        "slot": "3",
        "type": "t_mapping(t_address,t_uint256)"
      },
      {
        "astId": 41877,
        "contract": "src/TreasureManager.sol:TreasureManager",
        "label": "userReward",
        "offset": 0,
        "slot": "4",
        "type": "t_mapping(t_address,t_mapping(t_address,t_uint256))"
      }
    ],
    "types": {
      "t_address": {
        "encoding": "inplace",
        "label": "address",
        "numberOfBytes": "20"
      },
      "t_array(t_address)dyn_storage": {
        "encoding": "dynamic_array",
        "label": "address[]",
        "numberOfBytes": "32",
        "base": "t_address"
      },
      "t_mapping(t_address,t_mapping(t_address,t_uint256))": {
        "encoding": "mapping",
        "key": "t_address",
        "label": "mapping(address => mapping(address => uint256))",
        "numberOfBytes": "32",
        "value": "t_mapping(t_address,t_uint256)"
      },
      "t_mapping(t_address,t_uint256)": {
        "encoding": "mapping",
        "key": "t_address",
        "label": "mapping(address => uint256)",
        "numberOfBytes": "32",
        "value": "t_uint256"
      },
      "t_uint256": {
        "encoding": "inplace",
        "label": "uint256",
        "numberOfBytes": "32"
      }
    }
  },
  "id": 47
}